S01700004763634170706C69636174696F6E312E737265635B
S11300000C9434000C9475000C9446000C94460037
S11300100C9446000C9446000C9446000C94460044
S11300200C9446000C9446000C9446000C94460034
S11300300C9446000C9446000C9446000C94460024
S11300400C9446000C9446000C9446000C94460014
S11300500C9446000C9446000C9446000C94460004
S11300600C9446000C94460011241FBECFEFD8E038
S1130070DEBFCDBF21E0A0E0B1E001C01D92A230FF
S1130080B207E1F70E9499000C94F8000C94000068
S1130090209A38985098089580E480937C0086E8EC
S11300A080937A000895ECE7F0E09081907F8F7060
S11300B0892B8083EAE7F0E08081806480838081FB
S11300C086FDFDCF8091780090917900089583E8B2
S11300D084BD81E085BD17BC0895E89AE9E6F0E0A7
S11300E0808182608083789408951F920F920FB666
S11300F00F9211248F939F9380910001909101019D
S1130100019690930101809300019F918F910F902C
S11301100FBE0F901F90189584B1886284B92498FB
S113012081E58CBD08958EBD0DB407FEFDCF8EB55F
S113013008950E9448000E944C000E9467000E949B
S11301406D000E948C0078940FEFCFEFD3E01CE396
S113015080E00E9453009C01029FC001039F900D08
S11301601124BE010E94D50067BD809100019091C9
S113017001011092010110920001189F9001199F32
S1130180300D11243695279536952795ABE7B4E1C4
S11301900E94E900969587950E94930087EA91E66C
S11301A00197F1F700C00000D3CFAA1BBB1B51E19C
S11301B007C0AA1FBB1FA617B70710F0A61BB70BD3
S11301C0881F991F5A95A9F780959095BC01CD0178
S11301D00895A29FB001B39FC001A39F700D811D1C
S11301E01124911DB29F700D811D1124911D08953C
S10701F0F894FFCFAD
S9030000FC
